{
  "contractName": "PaymentChannel",
  "abi": [
    {
      "constant": false,
      "inputs": [
        {
          "name": "_channelHash",
          "type": "bytes32"
        },
        {
          "name": "_tokenAddress",
          "type": "address"
        },
        {
          "name": "_tokenAmount",
          "type": "uint256"
        }
      ],
      "name": "openChannel",
      "outputs": [
        {
          "name": "",
          "type": "bytes32"
        }
      ],
      "payable": false,
      "stateMutability": "nonpayable",
      "type": "function"
    },
    {
      "inputs": [],
      "payable": false,
      "stateMutability": "nonpayable",
      "type": "constructor"
    }
  ],
  "bytecode": "0x6060604052341561000f57600080fd5b336000806101000a81548173ffffffffffffffffffffffffffffffffffffffff021916908373ffffffffffffffffffffffffffffffffffffffff16021790555060e18061005d6000396000f300606060405260043610603f576000357c0100000000000000000000000000000000000000000000000000000000900463ffffffff168063ba999563146044575b600080fd5b3415604e57600080fd5b608e60048080356000191690602001909190803573ffffffffffffffffffffffffffffffffffffffff1690602001909190803590602001909190505060ac565b60405180826000191660001916815260200191505060405180910390f35b600093925050505600a165627a7a723058204d54636ccde35fc6b21df0a8b1a4f19f26a523674d6098735b217bb74e7be72d0029",
  "source": "pragma solidity ^0.4.18;\n\ncontract Token {\n  function transferFrom(address, address, uint256) returns (bool) {}\n}\n\ncontract PaymentChannel {\n  address owner;\n  mapping(bytes32 => Channel) channels;\n\n  struct Channel {\n    address tokenAddress;\n    uint256 tokenAmount;\n    bool isClosed;\n  }\n\n  function PaymentChannel() public {\n    owner = msg.sender;\n  }\n\n  function openChannel(bytes32 _channelHash, address _tokenAddress, uint256 _tokenAmount) \n    public returns (bytes32) \n  {\n\n  }\n}",
  "sourcePath": "/home/deon/sites/state-channel/contracts/PaymentChannel.sol",
  "compiler": {
    "name": "solc",
    "version": "0.4.18+commit.9cf6e910.Emscripten.clang"
  },
  "schemaVersion": "1.0.1",
  "updatedAt": "2018-01-14T06:37:56.583Z"
}