{
  "contractName": "TokenPaymentChannel",
  "abi": [
    {
      "constant": false,
      "inputs": [
        {
          "name": "_channelHash",
          "type": "bytes32"
        },
        {
          "name": "_refundAmount",
          "type": "uint256"
        },
        {
          "name": "_channelCloseHash",
          "type": "bytes32"
        },
        {
          "name": "_v",
          "type": "uint8"
        },
        {
          "name": "_r",
          "type": "bytes32"
        },
        {
          "name": "_s",
          "type": "bytes32"
        }
      ],
      "name": "closeChannel",
      "outputs": [],
      "payable": false,
      "stateMutability": "nonpayable",
      "type": "function"
    },
    {
      "constant": false,
      "inputs": [
        {
          "name": "_channelHash",
          "type": "bytes32"
        },
        {
          "name": "_tokenAddress",
          "type": "address"
        },
        {
          "name": "_tokenAmount",
          "type": "uint256"
        }
      ],
      "name": "openChannel",
      "outputs": [
        {
          "name": "success",
          "type": "bool"
        }
      ],
      "payable": false,
      "stateMutability": "nonpayable",
      "type": "function"
    },
    {
      "constant": false,
      "inputs": [],
      "name": "voidChannel",
      "outputs": [],
      "payable": false,
      "stateMutability": "nonpayable",
      "type": "function"
    },
    {
      "inputs": [],
      "payable": false,
      "stateMutability": "nonpayable",
      "type": "constructor"
    }
  ],
  "bytecode": "0x6060604052341561000f57600080fd5b336000806101000a81548173ffffffffffffffffffffffffffffffffffffffff021916908373ffffffffffffffffffffffffffffffffffffffff1602179055506107448061005e6000396000f300606060405260043610610057576000357c0100000000000000000000000000000000000000000000000000000000900463ffffffff1680630cf37fdf1461005c578063ba999563146100bf578063d7428c1f14610126575b600080fd5b341561006757600080fd5b6100bd6004808035600019169060200190919080359060200190919080356000191690602001909190803560ff16906020019091908035600019169060200190919080356000191690602001909190505061013b565b005b34156100ca57600080fd5b61010c60048080356000191690602001909190803573ffffffffffffffffffffffffffffffffffffffff169060200190919080359060200190919050506104dd565b604051808215151515815260200191505060405180910390f35b341561013157600080fd5b610139610716565b005b600080878760405180836000191660001916815260200182815260200192505050604051809103902091508160001916866000191614151561017c57600080fd5b3373ffffffffffffffffffffffffffffffffffffffff1660018360405180807f19457468657265756d205369676e6564204d6573736167653a0a333200000000815250601c0182600019166000191681526020019150506040518091039020878787604051600081526020016040526000604051602001526040518085600019166000191681526020018460ff1660ff16815260200183600019166000191681526020018260001916600019168152602001945050505050602060405160208103908084039060008661646e5a03f1151561025657600080fd5b50506020604051035173ffffffffffffffffffffffffffffffffffffffff1614151561028157600080fd5b60016000896000191660001916815260200190815260200160002090508060000160009054906101000a900473ffffffffffffffffffffffffffffffffffffffff1673ffffffffffffffffffffffffffffffffffffffff1663a9059cbb8260020160019054906101000a900473ffffffffffffffffffffffffffffffffffffffff16896000604051602001526040518363ffffffff167c0100000000000000000000000000000000000000000000000000000000028152600401808373ffffffffffffffffffffffffffffffffffffffff1673ffffffffffffffffffffffffffffffffffffffff16815260200182815260200192505050602060405180830381600087803b151561039157600080fd5b6102c65a03f115156103a257600080fd5b5050506040518051905015156103b757600080fd5b8060000160009054906101000a900473ffffffffffffffffffffffffffffffffffffffff1673ffffffffffffffffffffffffffffffffffffffff1663a9059cbb6000809054906101000a900473ffffffffffffffffffffffffffffffffffffffff16898460010154036000604051602001526040518363ffffffff167c0100000000000000000000000000000000000000000000000000000000028152600401808373ffffffffffffffffffffffffffffffffffffffff1673ffffffffffffffffffffffffffffffffffffffff16815260200182815260200192505050602060405180830381600087803b15156104ad57600080fd5b6102c65a03f115156104be57600080fd5b5050506040518051905015156104d357600080fd5b5050505050505050565b60008273ffffffffffffffffffffffffffffffffffffffff166323b872dd3330856000604051602001526040518463ffffffff167c0100000000000000000000000000000000000000000000000000000000028152600401808473ffffffffffffffffffffffffffffffffffffffff1673ffffffffffffffffffffffffffffffffffffffff1681526020018373ffffffffffffffffffffffffffffffffffffffff1673ffffffffffffffffffffffffffffffffffffffff1681526020018281526020019350505050602060405180830381600087803b15156105be57600080fd5b6102c65a03f115156105cf57600080fd5b5050506040518051905015156105e457600080fd5b6080604051908101604052808473ffffffffffffffffffffffffffffffffffffffff1681526020018381526020016000151581526020013373ffffffffffffffffffffffffffffffffffffffff1681525060016000866000191660001916815260200190815260200160002060008201518160000160006101000a81548173ffffffffffffffffffffffffffffffffffffffff021916908373ffffffffffffffffffffffffffffffffffffffff1602179055506020820151816001015560408201518160020160006101000a81548160ff02191690831515021790555060608201518160020160016101000a81548173ffffffffffffffffffffffffffffffffffffffff021916908373ffffffffffffffffffffffffffffffffffffffff160217905550905050600190509392505050565b5600a165627a7a72305820f778c89ee09d68c02d16e17356ac21b9b7eb57c422e35ba84df63ad1c3b36c440029",
  "source": "pragma solidity ^0.4.18;\n\ncontract Token {\n  function transfer(address, uint256) returns (bool) {}\n  function transferFrom(address, address, uint256) returns (bool) {}\n}\n\ncontract TokenPaymentChannel {\n  address owner;\n  mapping(bytes32 => Channel) channels;\n\n  struct Channel {\n    address tokenAddress;\n    uint256 tokenAmount;\n    bool isClosed;\n    address participant;\n  }\n\n  function TokenPaymentChannel() public {\n    owner = msg.sender;\n  }\n\n  function openChannel(bytes32 _channelHash, address _tokenAddress, uint256 _tokenAmount) \n    public returns (bool success) \n  {\n    require(Token(_tokenAddress).transferFrom(msg.sender, this, _tokenAmount));\n    channels[_channelHash] = Channel(_tokenAddress, _tokenAmount, false, msg.sender);\n    return true;\n  }\n\n  function closeChannel(bytes32 _channelHash, uint256 _refundAmount, bytes32 _channelCloseHash, uint8 _v, bytes32 _r, bytes32 _s) {\n    bytes32 _hash = keccak256(_channelHash, _refundAmount);\n    require(_channelCloseHash == _hash);\n    require(ecrecover(keccak256(\"\\x19Ethereum Signed Message:\\n32\", _hash), _v, _r, _s) == msg.sender);\n    Channel _channel = channels[_channelHash];\n    require(Token(_channel.tokenAddress).transfer(_channel.participant, _refundAmount));\n    require(Token(_channel.tokenAddress).transfer(owner, _channel.tokenAmount - _refundAmount));\n  }\n\n  function voidChannel() {\n    \n  }\n}",
  "sourcePath": "/home/deon/sites/state-channel/contracts/TokenPaymentChannel.sol",
  "compiler": {
    "name": "solc",
    "version": "0.4.18+commit.9cf6e910.Emscripten.clang"
  },
  "schemaVersion": "1.0.1",
  "updatedAt": "2018-01-14T07:15:32.467Z"
}